:020000040800F2
:10000000D0050024AD020008B5020008B7020008C0
:10001000B9020008BB020008BD0200080000000091
:10002000000000000000000000000000BF02000807
:10003000C102000800000000C3020008C14C000813
:10004000C7020008C7020008C7020008C70200086C
:10005000C7020008C7020008C7020008C70200085C
:10006000C7020008C7020008C7020008C70200084C
:10007000C7020008C7020008C7020008C70200083C
:10008000C7020008C7020008C7020008C70200082C
:10009000C7020008C7020008C7020008C70200081C
:1000A000C7020008C7020008C7020008C70200080C
:1000B000C7020008C7020008C7020008C7020008FC
:1000C000C7020008C7020008C7020008C7020008EC
:1000D000C70200088D5F0008C7020008C7020008B9
:1000E000C7020008C702000800000000C70200089D
:1000F000C7020008C7020008C7020008C7020008BC
:10010000C7020008C7020008C7020008C7020008AB
:10011000C7020008C7020008C7020008C70200089B
:10012000C7020008C7020008C7020008C70200088B
:10013000C7020008C7020008C7020008C70200087B
:1001400000000000000000000000000000000000AF
:10015000C7020008C7020008C7020008C70200085B
:10016000C7020008C7020008C7020008C70200084B
:10017000C7020008C7020008C7020008000000000C
:10018000C7020008C7020008C7020008C70200082B
:10019000C7020008C7020008C7020008C70200081B
:1001A000C7020008C7020008C7020008C70200080B
:1001B000C7020008C7020008C7020008C7020008FB
:1001C000C7020008C7020008C7020008C7020008EB
:1001D000C7020008C7020008C7020008C7020008DB
:1001E000C7020008C7020008C7020008C7020008CB
:1001F000C7020008C7020008C7020008C7020008BB
:10020000C7020008C7020008C7020008C7020008AA
:10021000C7020008C7020008C7020008C70200089A
:10022000C7020008C7020008C7020008000000005B
:10023000C7020008C702000800000000C70200084B
:10024000C7020008C7020008C7020008C70200086A
:10025000C7020008C7020008C7020008C70200085A
:10026000C7020008C7020008C7020008C70200084A
:10027000C7020008C7020008C7020008000000000B
:10028000C7020008C7020008C702000800000000FB
:1002900000000000C7020008DFF80CD000F08CF866
:1002A0000048004719640008D0050024064880472C
:1002B00006480047FEE7FEE7FEE7FEE7FEE7FEE74B
:1002C000FEE7FEE7FEE7FEE7114E00089902000890
:1002D0002DE9F05F0546002092469B46884606467B
:1002E000814640241BE0284641464746224600F00E
:1002F00053F853465A46C01A914110D31146184636
:10030000224600F03AF82D1A67EB01084F462246C4
:100310000120002100F031F817EB00094E41201EAA
:10032000A4F10104DFDC484631462A464346BDE8D5
:10033000F09F40EA01039B0703D009E008C9121FA0
:1003400008C0042AFAD203E011F8013B00F8013B8F
:10035000521EF9D27047D2B201E000F8012B491EBB
:10036000FBD270470022F6E710B513460A46044652
:100370001946FFF7F0FF204610BD202A04DB203A83
:1003800000FA02F1002070479140C2F1200320FAE8
:1003900003F3194390407047202A04DB203A21FAE6
:1003A00002F00021704721FA02F3D040C2F120028E
:1003B0009140084319467047064C074D06E0E06837
:1003C00040F0010394E8070098471034AC42F6D39C
:1003D000FFF766FFC0660008E06600082DE9FF41F0
:1003E0004FF00A080020039000260025012002900B
:1003F000354C00270020019009E003A9334800F0A4
:1004000029F9334908700846007800B904E0A8F1DA
:100410000100B0F10008F0D100BF642004F034FC0A
:100420002B48007818B1012004B0BDE8F081039892
:1004300000F07DF80646072E01D90220F4E70025DA
:100440000120029030E001A8214B02AA2946009029
:10045000204800F08BF807461D48007820B100F0D6
:10046000E9FF1B480078DFE7B4F1006F0ED01648B3
:1004700084420BD01848844208D01848844205D0E2
:100480001748844202D01748844202D1204605F022
:100490003DFE9DF804203946204605F007FF9DF8F3
:1004A00004000444681CC5B29DF808000128CAD0A5
:1004B0009DF8080018B92946012000F02DF900F038
:1004C000B9FF0020B0E700000000020840420F0022
:1004D00002000024001BB70000000408000006080A
:1004E0000000080800000A08F0B504460D4616464C
:1004F0001F462078CD2801D00120F0BD601910F8EA
:10050000010CDC2801D00220F7E7A81E81B22046AA
:1005100000F019F8611911F8021C884201D0062078
:10052000EBE760783070A07838700020E5E701468E
:1005300000200A46C2F310031BB1012303EB524013
:1005400000E0500C704710B502460B460021002019
:10055000012104E0545C0444E0B24C1CA1B2994275
:10056000F8DBC443BB34E0B210BD00002DE9FC470A
:1005700006460F4615461C46DDF82880B1464FF06A
:10058000000A0020019000903946042000F0C4F8D1
:1005900050E000F0E5F88246BAF1010F4AD12B484D
:1005A000B0F800116B4601AA3830FFF79DFF2849CB
:1005B00008700846007838B100F0CAF8244800787E
:1005C00020700020BDE8FC87781CC0B29DF80010A8
:1005D000884205D000F0BCF8042020700020F1E72C
:1005E0009DF8040002280DD100F0B2F80120287017
:1005F000164890F83B0088F800000020207013484F
:100600003C30DFE79DF8040003280DD100F0A0F88E
:10061000002028700D4890F83B0088F8000000206A
:1006200020700A483C30CDE700F092F8032020709B
:100630000020C7E7A9F10100B0F10009A9D100F03D
:1006400087F8012020700020BCE70000180000247B
:10065000020000242DE9FC4104460D4626460027F1
:100660000020019000900021062000F055F848E09D
:1006700000F076F80746012F43D12448B0F8001166
:100680006B4601AA3830FFF72FFF21490870084652
:10069000007828B100F05CF81D480078BDE8FC81C6
:1006A0009DF80400012803D000F052F80320F5E77C
:1006B0009DF8000018B100F04BF80420EEE7134855
:1006C00090F83C0013490988884203D000F040F8B4
:1006D0000520E3E70D4890F83D0001060B4890F82F
:1006E0003E0001EB0041094890F83F0001EB00217A
:1006F000064890F840000844286000F029F80020DF
:10070000CCE7701E061EB3D10120C7E718000024F5
:10071000020000240000002470B505460C46CD20E0
:100720000A4988710846C5710472002141728172BC
:100730000521801DFFF707FF0449C872DC2103482B
:1007400001730721801D00F037F870BD18000024E8
:1007500000200249A1F800014871704718000024E8
:100760000348407908B9002070470120FCE70000E9
:100770001800002470B504460D4608480460057151
:10078000002006494871A1F80001A1F802010A46BB
:100790001179106805F002FC70BD000018000024FB
:1007A00010B54FF4FA7004F07EFA024803F0CAFE66
:1007B00010BD00001C01002470B505460E46002443
:1007C000012211020E4801F0DFF800BF01E000BF76
:1007D000641C40F6B8308442F9D33146284605F00F
:1007E00019FC002401E000BF641C40F6B8308442CC
:1007F000F9D300224FF48071014801F0C5F870BDB3
:100800000008025872B600BFFEE7000010B501F004
:1008100001037BB1134BDB6823F4E663114CE36007
:1008200042F0040343EA002343F08003E4682343D7
:100830000C4CE36001F00203022B12D10A4B1B683F
:1008400023F4E663074CC4F80C3142F0040343EA96
:10085000002343F08003D4F80C412343014CC4F837
:100860000C3110BD002000520C21005201F0030297
:10087000032A1BD1234AD26822F03002214BDA60CE
:10088000214A126822F03002C3F80C211A46D268BD
:100890000243DA601A46D2F80C210243C3F80C2155
:1008A0001A46926942F010029A6129E001F00102B1
:1008B00072B1144AD26822F03002124BDA601A4642
:1008C000D2680243DA601A46D26842F08802DA60DF
:1008D00001F00202022A13D10B4A126822F0300200
:1008E000084BC3F80C211A46D2F80C210243C3F876
:1008F0000C211A46D2F80C2142F08802C3F80C21D0
:1009000070470000002000520C2100522DE9F041F8
:1009100007460E460424002501F042F88046022EC8
:1009200000D1344C0BE0781C48B101F039F8A0EB51
:100930000800B84200D817B90320BDE8F0812E485E
:100940002040A04208D12D4800692040A04201D19A
:1009500001200DE000200BE02948006824F0004150
:10096000084024F00041884201D1012000E000202D
:100970000028D8D1012E05D120480069214900EA7C
:10098000010505E01E4800681F49084040F0004589
:1009900025F0004090B11D48806928431B498861BB
:1009A00015482840A84202D11448456104E025F0CA
:1009B00000401349091D08600120BEE7012E0AD13D
:1009C0000E48006900F48030B0F5803F0FD130044C
:1009D0000A4948610BE00A48006800F48030B0F52D
:1009E000803F04D14FF480300549091D0860002084
:1009F000A3E70000040000800F00EF1F002000525A
:100A0000102100520000EE170000EE97B001002404
:100A100070B500244021194800F0AEFFC501202127
:100A2000164800F0A9FF45EA80151021134800F090
:100A3000A3FF45EA40150821104800F09DFF45EA54
:100A4000001504210D4800F097FF45EAC00502217A
:100A50000A4800F091FF45EA80050121074800F0AF
:100A60008BFF45EA40054FF48051054800F084FFB4
:100A700045EA0004641C204670BD0000000C0258CA
:100A8000000802582DE9F041044600F089FF804635
:100A900014B90120BDE8F08194F83500022808D08F
:100AA0008020606500BF002084F8340000BF012072
:100AB000F0E7FE492068884249D0FC491831206897
:100AC000884244D0F9493031206888423FD0F74904
:100AD0004831206888423AD0F44960312068884221
:100AE00035D0F24978312068884230D0EF499031D2
:100AF000206888422BD0ED49A8312068884226D052
:100B0000EB492068884222D0E949183120688842A0
:100B10001DD0E74930312068884218D0E449483177
:100B20002068884213D0E2496031206888420ED0A4
:100B3000DF4978312068884209D0DD49903120684A
:100B4000884204D0DA49A8312068884201D10120C6
:100B500000E0002068B12068006820F01E002168D5
:100B600008602068406920F080002168486125689D
:100B700006E02068006820F00E0021680860256803
:100B8000CA492068884270D0C84918312068884214
:100B90006BD0C64930312068884266D0C34948319D
:100BA0002068884261D0C1496031206888425CD0A9
:100BB000BE4978312068884257D0BC4990312068BE
:100BC000884252D0B949A831206888424DD0B849EE
:100BD0002068884249D0B64918312068884244D0FC
:100BE000B3493031206888423FD0B149483120684C
:100BF00088423AD0AE4960312068884235D0AC494D
:100C000078312068884230D0A949903120688842E4
:100C10002BD0A749A8312068884226D0A549206852
:100C2000884222D0A3491431206888421DD0A149AE
:100C300028312068884218D09E493C31206888427B
:100C400013D09C495031206888420ED099496431B4
:100C50002068884209D0974978312068884204D0BA
:100C600094498C312068884201D1012000E00020A5
:100C700028B1206E006820F48070216E08608B49D6
:100C80002068884249D0894918312068884244D078
:100C900086493031206888423FD0844948312068F5
:100CA00088423AD0814960312068884235D07F49F6
:100CB00078312068884230D07C4990312068884261
:100CC0002BD07A49A8312068884226D078492068FC
:100CD000884222D076491831206888421DD0744954
:100CE00030312068884218D07149483120688842E4
:100CF00013D06F496031206888420ED06C4978313A
:100D00002068884209D06A4990312068884204D01E
:100D10006749A8312068884206D12068006820F021
:100D200001002168086005E02068006820F00100EB
:100D30002168086011E000F033FEA0EB08000528F0
:100D40000BD920206065032084F8350000BF002007
:100D500084F8340000BF01209CE6286800F0010000
:100D60000028E8D151492068884249D04F491831BC
:100D70002068884244D04D493031206888423FD0B5
:100D80004A494831206888423AD048496031206851
:100D9000884235D0454978312068884230D043496F
:100DA0009031206888422BD04049A8312068884281
:100DB00026D03F492068884222D03D49183120681A
:100DC00088421DD03A4930312068884218D03849CD
:100DD00048312068884213D0354960312068884204
:100DE0000ED0334978312068884209D0304990319B
:100DF0002068884204D02E49A8312068884201D159
:100E0000012000E0002040B1A66D94F85C0000F0E5
:100E10001F013F208840B06007E0A76D94F85C0098
:100E200000F01F0101208840786020492068884236
:100E300076D01E4918312068884271D01B49303164
:100E4000206888426CD0194948312068884267D0B0
:100E5000164960312068884262D014497831206890
:100E600088425DD0114990312068884258D00F499E
:100E7000A8312068884253D00D49206888424FD05D
:100E80000B491831206888424AD00949303120681E
:100E9000884245D0064948312068884240D00449FC
:100EA0006031206888423BD0014905E010000240D3
:100EB00010040240085402587831206888422FD02C
:100EC0002549206888422BD0234918312068884260
:100ED00026D022492068884222D020491431206837
:100EE00088421DD01D4928312068884218D01B49EE
:100EF0003C312068884213D018495031206888421C
:100F00000ED0164964312068884209D013497831DF
:100F10002068884204D011498C312068884201D170
:100F2000012000E0002068B1D4E919104860E06EAB
:100F300040B1E06E006820F48070E16E0860D4E992
:100F40001C104860012084F8350000BF002084F8A0
:100F5000340000BF00BF9DE5A004024008540258C1
:100F600070B504460CB9012070BD94F83500022814
:100F700003D0802060650120F6E7DC4920688842C4
:100F800049D0DA4918312068884244D0D7493031F5
:100F9000206888423FD0D5494831206888423AD0FD
:100FA000D24960312068884235D0D04978312068F4
:100FB000884230D0CD499031206888422BD0CB492F
:100FC000A8312068884226D0C9492068884222D0AA
:100FD000C7491831206888421DD0C5493031206882
:100FE000884218D0C24948312068884213D0C0498D
:100FF0006031206888420ED0BD497831206888422F
:1010000009D0BB4990312068884204D0B849A83142
:101010002068884201D1012000E00020F0B30420C4
:1010200084F83500B149206888424BD0AF49183167
:101030002068884246D0AD4930312068884241D08E
:10104000AA494831206888423CD0A84960312068CC
:10105000884237D0A54978312068884232D0A349E8
:101060009031206888422DD0A049A831206888425C
:1010700028D09F492068884224D09D491831206893
:1010800088421FD09A493031206888421AD0984946
:1010900048312068884215D0954900E020E0603151
:1010A000206888420ED0924978312068884209D061
:1010B0008F4990312068884204D08D49A83120683A
:1010C000884206D12068006820F00100216808608D
:1010D00009E12068006820F001002168086002E151
:1010E0002068006820F00E00216808607F492068B1
:1010F000884249D07D4918312068884244D07B49D4
:101100003031206888423FD0784948312068884291
:101110003AD0764960312068884235D073497831B9
:101120002068884230D071499031206888422BD0A5
:101130006E49A8312068884226D06D4920688842CF
:1011400022D06B491831206888421DD0684930315F
:101150002068884218D0664948312068884213D0F8
:1011600063496031206888420ED061497831206837
:10117000884209D05E4990312068884204D05C4999
:10118000A8312068884206D12068006820F001005C
:101190002168086005E02068006820F001002168EF
:1011A000086052492068884270D050491831206840
:1011B00088426BD04D4930312068884266D04B4917
:1011C00048312068884261D04849603120688842AF
:1011D0005CD0464978312068884257D043499031E5
:1011E0002068884252D04149A831206888424DD0B9
:1011F0003F492068884249D03D49183120688842DB
:1012000044D03B493031206888423FD0384948318A
:10121000206888423AD0364960312068884235D00B
:10122000334978312068884230D031499031206884
:1012300088422BD02E49A8312068884226D02D49DB
:101240002068884222D02B491431206888421DD062
:10125000284928312068884218D026493C31206826
:10126000884213D023495031206888420ED021494A
:1012700064312068884209D01E497831206888424C
:1012800004D01C498C312068884201D1012000E043
:101290000020D8B1206E006820F48070216E0860B4
:1012A000A56D94F85C0000F01F0101208840686083
:1012B000D4E919104860E06E40B1E06E006820F497
:1012C0008070E16E0860D4E91C104860012084F849
:1012D000350000BF002084F8340000BF206D10B13D
:1012E0002046216D884700203EE6000010000240A5
:1012F00010040240085402582DE9F04104460E46FD
:10130000002700BF4848007D012802D10220BDE827
:10131000F08101204449087500BF002088612079D0
:1013200000F0010030B101214CF25030FFF7EEFA2D
:1013300000B10127207900F00200022806D1022125
:101340004CF25030FFF7E2FA00B10127002F63D1D1
:101350002068012828D161682069FFF787FA207981
:1013600000F0010060B101214CF25030FFF7CEFADD
:1013700000B101272D48C06820F008002B49C86043
:10138000207900F00200022846D102214CF25030B0
:10139000FFF7BCFA00B101272548006820F00800DB
:1013A0002249C1F80C0137E04FF0FF303060A568EA
:1013B0002CE0284622696168FFF728FA207900F0BE
:1013C000010060B101214CF25030FFF79FFA07464F
:1013D0001648C06840F2047188431449C8602079F7
:1013E00000F0020002280DD102214CF25030FFF72C
:1013F0008DFA07460E48006840F2047188430B4995
:10140000C1F80C010FB1356005E06D1CD4E9021084
:101410000844A842CDD800BF00BF0020024908758B
:1014200000BF384673E70000B001002400200052DE
:101430000C2100520E48C06840F001000C49C86001
:101440000846C06800F0010008B90120704709484B
:10145000006840F001000649C1F80C010548006829
:1014600000F0010008B90120F0E70020EEE70000DD
:10147000002000520C2100522DE9F05F83460C46FB
:101480001746A046B9464FF0080A00BF4248007D03
:10149000012802D10220BDE8F09F01203E490875D5
:1014A00000BFB4F1006F04D3B4F1016F01D2012584
:1014B00009E0B4F1016F04D3B4F1026F01D2022547
:1014C00001E00120E7E700203349886129464CF21A
:1014D0005030FFF71BFA0646002E55D1012D06D1DC
:1014E0002E48C06840F002002C49C86006E02C4835
:1014F000006840F002002949C1F80C0100BF00BF9C
:1015000000BFBFF36F8F00BF00BF00BF00BF00BFB1
:1015100000BFBFF34F8F00BF00BF00BF00BFD9F8AF
:101520000000C8F8000008F1040809F10409AAF154
:10153000010000F0FF0ABAF1000FF0D100BF00BFB8
:1015400000BFBFF36F8F00BF00BF00BF00BF00BF71
:1015500000BFBFF34F8F00BF00BF00BF29464CF252
:101560005030FFF7D3F90646012D06D10B48C0686D
:1015700020F002000949C86006E00948006820F030
:1015800002000649C1F80C0100BF0020024908759D
:1015900000BF30467FE70000B00100240020005269
:1015A0000C2100521348C06800F0010058B11248E5
:1015B00010494860114848600846C06800F00100C2
:1015C00008B1012070470E48006800F0010070B1BA
:1015D00009480B490839086008480649C1F8040160
:1015E0000748006800F0010008B10120EAE7002088
:1015F000E8E700000020005223016745AB89EFCDEA
:101600000C210052F0B50C460021504B98E0012609
:101610008E4006EA0402002A7ED04D4E8F0856F80E
:1016200027508E07370F0F26BE403540494EB04237
:1016300001D100262DE0484EB04201D1012628E01C
:10164000464EB04201D1022623E0454EB04201D1C0
:1016500003261EE0434EB04201D1042619E0424E5B
:10166000B04201D1052614E0404EB04201D1062619
:101670000FE03F4EB04201D107260AE03D4EB04296
:1016800001D1082605E03C4EB04201D1092600E018
:101690000A268F073F0FBE40AE421FD11E689643F9
:1016A0001E605E6896435E604FF0B0467668964373
:1016B0004FF0B0477E603E46366896433E608E07E8
:1016C000370F0F2606FA07F5214E8F0856F82760C8
:1016D000AE431F4F4FEA910C47F82C6006684FEA63
:1016E000410C032707FA0CF73E430660CF0800F1D0
:1016F000200656F827604F074FEAD76C0F2707FAE6
:101700000CF7BE434FEAD10C00F1200747F82C60DC
:10171000C6684FEA410C00E011E0032707FA0CF716
:10172000BE43C660476801268E40B743476086685F
:101730004FEA410C032707FA0CF7BE438660491CA9
:1017400024FA01F6002E7FF462AFF0BD800000584D
:10175000080400580000025800040258000802580B
:10176000000C0258001002580014025800180258C9
:10177000001C02580020025800240258F8B5024606
:101780000B4600216F4DD7E001278F401E6806EA07
:101790000704002C72D01E7906F00306012E04D037
:1017A0001E7906F00306022E13D190684F0003261F
:1017B000BE40B0434F00DE68BE403043906050688A
:1017C00001268E40B0431E79C6F300168E4030438A
:1017D00050601E7906F00306032E09D0D0684F0032
:1017E0000326BE40B0434F009E68BE403043D060E9
:1017F0001E7906F00306022E13D1CF0802F120064F
:1018000056F827004E07F70E0F26BE40B0434F078D
:10181000FF0E1E69BE403043CF0802F1200646F895
:10182000270010684F000326BE40B0431E7906F023
:1018300003064F00BE40304310605E6806F4403639
:10184000002E78D000BF404E366846F002063E4F6C
:101850003E603E46366806F00206009600BF00BFB6
:101860003A4E8F0856F827008E07370F0F26BE40D6
:10187000B043374EB24202D100262EE05BE0354E37
:10188000B24201D1012628E0334EB24201D10226F4
:1018900023E0324EB24201D103261EE0304EB24266
:1018A00001D1042619E02F4EB24201D1052614E0E1
:1018B0002D4EB24201D106260FE02C4EB24201D18C
:1018C00007260AE02A4EB24201D1082605E0294E39
:1018D000B24201D1092600E00A268F073F0FBE4021
:1018E00030431A4E8F0846F827004FF0B046306854
:1018F000A0435E6806F4801606B120434FF0B04660
:1019000030607068A0435E6806F4001606B120439C
:101910004FF0B04670606868A0435E6806F4003619
:1019200006B1204368602868A0435E6806F48036EC
:1019300006B120432860491C1E68CE40002E7FF46B
:1019400023AFF8BD80000058F44402580804005842
:10195000000002580004025800080258000C025807
:10196000001002580014025800180258001C0258B7
:101970000020025800240258024613690B400BB1A4
:10198000012000E0002070470AB1816101E00B04F2
:101990008361704701480068000C70470010005CCC
:1019A00001480068704700000C00002410B50320B7
:1019B00000F032F901F05AFD10490968C1F3032122
:1019C0000F4A515C01F01F0120FA01F40B48006836
:1019D00000F00F001146085C00F01F0024FA00F030
:1019E00008490860084804600F2000F00FF808B1AB
:1019F000012010BD00F09AF80020FAE718440258C0
:101A000088660008080000240400002470B504461D
:101A10001148007808B9012070BD0F4800784FF4D4
:101A20007A71B1FBF0F00D490968B1FBF0F5284679
:101A300002F05EFA08B10120EEE7102C07D2002276
:101A40002146501E00F0AAF80548046001E001207C
:101A5000E2E70020E0E70000140000240400002476
:101A6000100000244178154A11600178F9B1121D67
:101A700041681160017B0907C27A41EA0261827AFA
:101A800041EAC241427B41EA8241827B41EA4241D2
:101A9000C27B41EA0241427A41EA0221027A41EAEA
:101AA000420102781143054A0832116005E0002125
:101AB000024A121D1160121D1160704798ED00E07E
:101AC00000BF00BF00BFBFF35F8F00BF00BF00BFFC
:101AD0000548006820F4803003490860002002496E
:101AE000703108607047000024ED00E040F0010113
:101AF0000D4A11600C497039096841F480310A4A75
:101B0000703A116000BF00BF00BFBFF34F8F00BF2E
:101B100000BF00BF00BF00BF00BFBFF36F8F00BF9B
:101B200000BF00BF7047000094ED00E07047000068
:101B300010B501460846002817DB00F01F030122FC
:101B40009A400B4B440943F8242000BF00BF00BF5C
:101B5000BFF34F8F00BF00BF00BF00BF00BF00BF7B
:101B6000BFF36F8F00BF00BF00BF00BF10BD0000FC
:101B700080E100E00146084600280DDB00BF00BF01
:101B800000F01F0301229A4043099B0003F1E02368
:101B9000C3F8002100BF00BF00BF70472DE9F05F10
:101BA00080460D46164604F041FA074639462A4655
:101BB000334601F00700C0F1070ABAF1040F02D959
:101BC0004FF0040A01E0C0F1070AD14600F1040A0F
:101BD000BAF1070F02D24FF0000A01E0A0F1030AA8
:101BE000D4464FF0010A0AFA09FAAAF1010A0AEAF0
:101BF000020A0AFA0CFA4FF0010B0BFA0CFBABF1DC
:101C0000010B0BEA030B4AEA0B042146404604F0A1
:101C100015FABDE8F09F000000BF00F00702064B78
:101C200019684FF6FF031940044B0B4343EA0221A6
:101C3000014B196000BF70470CED00E00000FA0591
:101C400070B5044615480068C0F3800048B91348D1
:101C5000006800F00700A04201D0012070BD002004
:101C6000FCE70E48006820F0070020430B4908609D
:101C7000FFF796FE054607E0FFF792FE401BB0F522
:101C80007A7F01D90120E9E7044808380068C0F3E9
:101C900040300028F0D00020E0E700000C48025857
:101CA00010B501F099FB05490968C1F30211044A16
:101CB000515C01F01F01C84010BD000020440258D3
:101CC0008866000870B50146844D2D6805F0030351
:101CD000824D2D68C5F30530804D2D1D2D68C5F34F
:101CE00000147E4D14352D68C5F3CC0515FB04F5A5
:101CF00001EE105AB8EE411AF0EE410A00286FD0FA
:101D000023B1012B4ED0022B6BD16BE0734D283DDC
:101D10002D68C5F340153DB3704D283D2D68C5F3C2
:101D2000C1066F4D25FA06F201EE102AF8EE411AAF
:101D300001EE100AB8EE411A81EE812A9FED691A70
:101D4000C0EE811A654D10352D68C5F3080501EE0A
:101D5000105AB8EE411A31EE811AF7EE001A31EE40
:101D6000211A22EE010A1CE001EE100AB8EE411A17
:101D7000DFED5D1A81EE812A9FED5A1AC0EE811ABD
:101D8000564D10352D68C5F3080501EE105AB8EE12
:101D9000411A31EE811AF7EE001A31EE211A22EEC5
:101DA000010A5BE001EE100AB8EE411ADFED4F1AAE
:101DB00081EE812A9FED4B1AC0EE811A474D1035F6
:101DC0002D68C5F3080501EE105AB8EE411A31EE40
:101DD000811AF7EE001A31EE211A22EE010A3DE0D7
:101DE00077E01DE001EE100AB8EE411A9FED402A9F
:101DF000C2EE011A9FED3B1A80EE812A374D103555
:101E00002D68C5F3080501EE105AB8EE411A32EEFE
:101E1000011AB7EE002A31EE021A21EE810A1DE006
:101E200001EE100AB8EE411ADFED301A81EE812A78
:101E30009FED2C1AC0EE811A284D10352D68C5F380
:101E4000080501EE105AB8EE411A31EE811AF7EE8C
:101E5000001A31EE211A22EE010A00BF00BF1F4D09
:101E600010352D68C5F3462501EE105AB8EE411A1B
:101E7000F7EE001A31EE211AC0EE011ABCEEE11A9B
:101E800081ED001A154D10352D68C5F3064501EE9C
:101E9000105AB8EE411AF7EE001A31EE211AC0EED0
:101EA000011ABCEEE11A81ED011A0C4D10352D68B6
:101EB000C5F3066501EE105AB8EE411AF7EE001AA6
:101EC00031EE211AC0EE011ABCEEE11A81ED021AC0
:101ED00003E000250D604D608D6070BD2844025800
:101EE0000090D003000000460024744C0024744A83
:101EF0000024F44A70B50146844D2D6805F00303B3
:101F0000824D2D68C5F30550804D2D1D2D68C5F3FC
:101F100000247E4D1C352D68C5F3CC0515FB04F55A
:101F200001EE105AB8EE411AF0EE410A00286FD0C7
:101F300023B1012B4ED0022B6BD16BE0734D283DAA
:101F40002D68C5F340153DB3704D283D2D68C5F390
:101F5000C1066F4D25FA06F201EE102AF8EE411A7D
:101F600001EE100AB8EE411A81EE812A9FED691A3E
:101F7000C0EE811A654D18352D68C5F3080501EED0
:101F8000105AB8EE411A31EE811AF7EE001A31EE0E
:101F9000211A22EE010A1CE001EE100AB8EE411AE5
:101FA000DFED5D1A81EE812A9FED5A1AC0EE811A8B
:101FB000564D18352D68C5F3080501EE105AB8EED8
:101FC000411A31EE811AF7EE001A31EE211A22EE93
:101FD000010A5BE001EE100AB8EE411ADFED4F1A7C
:101FE00081EE812A9FED4B1AC0EE811A474D1835BC
:101FF0002D68C5F3080501EE105AB8EE411A31EE0E
:10200000811AF7EE001A31EE211A22EE010A3DE0A4
:1020100077E01DE001EE100AB8EE411A9FED402A6C
:10202000C2EE011A9FED3B1A80EE812A374D18351A
:102030002D68C5F3080501EE105AB8EE411A32EECC
:10204000011AB7EE002A31EE021A21EE810A1DE0D4
:1020500001EE100AB8EE411ADFED301A81EE812A46
:102060009FED2C1AC0EE811A284D18352D68C5F346
:10207000080501EE105AB8EE411A31EE811AF7EE5A
:10208000001A31EE211A22EE010A00BF00BF1F4DD7
:1020900018352D68C5F3462501EE105AB8EE411AE1
:1020A000F7EE001A31EE211AC0EE011ABCEEE11A69
:1020B00081ED001A154D18352D68C5F3064501EE62
:1020C000105AB8EE411AF7EE001A31EE211AC0EE9E
:1020D000011ABCEEE11A81ED011A0C4D18352D687C
:1020E000C5F3066501EE105AB8EE411AF7EE001A74
:1020F00031EE211AC0EE011ABCEEE11A81ED021A8E
:1021000003E000250D604D608D6070BD28440258CD
:102110000090D003000000460024744C0024744A50
:102120000024F44A2DE9F04104460025A8464FF06A
:102130000062D4E90010114000201346594040408D
:10214000014331D1A06E48B1B0F5801F0DD0B0F57C
:10215000001F11D0B0F5401F16D114E0F9480068F7
:1021600040F40030F749086010E0022104F1080053
:1021700002F026FC054609E0022104F1280002F0E5
:10218000D1FC054602E001E0012500BF00BF55B9C2
:10219000EC482430006820F44010A16E0843E9495F
:1021A0002431086000E0A8464FF48073D4E90010A1
:1021B000194000205940404001432ED1A06D052810
:1021C0001BD2DFE800F0030A11181900DD4800688F
:1021D00040F40030DB49086011E0002104F1080000
:1021E00002F0EEFB05460AE0002104F1280002F0AF
:1021F00099FC054603E002E001E0012500BF00BFB5
:1022000055B9D0482430006820F00700A16D08437C
:10221000CC492431086000E0A8464FF40073D4E9AB
:1022200000101940002059404040014334D1E06D76
:10223000802818D003DC40B140281DD10CE0C02814
:1022400018D0B0F5807F17D115E0BE48006840F483
:102250000030BC49086011E0002104F1080002F0E0
:10226000AFFB05460AE0002104F1280002F05AFC09
:10227000054603E002E001E0012500BF00BF55B9BB
:10228000B0482430006820F4E070E16D0843AD49A7
:102290002431086000E0A8464FF48063D4E90010C0
:1022A0001940002059404040014339D1D4F8A800DA
:1022B000B0F5800F1AD004DC50B1B0F5001F1ED16C
:1022C0000DE0B0F5C00F18D0B0F5000F17D115E034
:1022D0009C48006840F400309A49086011E00021F1
:1022E00004F1080002F06CFB05460AE0002104F14D
:1022F000280002F017FC054603E002E001E001259A
:1023000000BF00BF5DB98F482C30006820F460002A
:10231000D4F8A81008438B492C31086000E0A84687
:102320004FF40062D4E900101140002013465940D8
:102330004040014339D1D4F8AC00B0F1007F1AD04D
:1023400004DC50B1B0F1807F1ED10DE0B0F1407FD0
:1023500018D0B0F1806F17D115E07A48006840F4CA
:1023600000307849086011E0002104F1080002F013
:1023700027FB05460AE0002104F1280002F0D2FB09
:10238000054603E002E001E0012500BF00BF5DB9A2
:102390006C482C30006820F0E060D4F8AC100843A2
:1023A00068492C31086000E0A8464FF00073D4E97A
:1023B00000011840002158404940084328D1E06CF2
:1023C000A8B1102804D0202809D0302810D10DE061
:1023D0005C48006840F400305A4908600AE0022175
:1023E00004F1080002F0ECFA054603E002E001E027
:1023F000012500BF00BF55B952482030006820F0C9
:102400003000E16C08434F492031086000E0A846E5
:102410004FF48053D4E90010194000205940404047
:10242000014337D1206EB0F5005F1AD004DC50B103
:10243000B0F5805F1ED10DE0B0F5405F18D0B0F56B
:10244000804F17D115E03F48006840F400303D4907
:10245000086011E0002104F1080002F0B1FA05461D
:102460000AE0002104F1280002F05CFB054603E0CD
:1024700002E001E0012500BF00BF55B9314824301A
:10248000006820F4E040216E08432E4924310860A2
:1024900000E0A8464FF40053D4E900101940002092
:1024A00059404040014335D1606EB0F5403F1ED0E9
:1024B00007DC68B1B0F5803F0BD0B0F5003F19D113
:1024C0000EE0B0F5802F13D0B0F5A02F12D110E0A0
:1024D00012E0012104F1080002F072FA05460BE057
:1024E000012104F1280002F01DFB054604E003E091
:1024F00002E001E0012500BF00BF55B911482430BA
:10250000006820F4E020616E08430E492431086021
:1025100000E0A8464FF48043D4E9000118400021B0
:1025200058404940084337D1D4F8B000B0F1405F7B
:1025300020D009DC78B1B0F1805F0DD0B0F1005F40
:102540001BD110E02C440258B0F1804F13D0B0F1F1
:10255000A04F12D110E012E0012104F1080002F0B6
:102560002FFA05460BE0012104F1280002F0DAFA07
:10257000054604E003E002E001E0012500BF00BFE2
:102580004DB9FE48006820F0E040D4F8B010084390
:10259000FA49086000E0A8464FF40042D4E9001070
:1025A00011400020134659404040014329D1206F7B
:1025B000B0B1B0F1805F03D0B0F1005F11D108E09D
:1025C000EE482C38006840F40030EC492C390860A3
:1025D00009E0012104F1080002F0F2F9054602E0E9
:1025E00001E0012500BF00BF55B9E4480838006884
:1025F00020F04050216F0843E0490839086000E0AE
:10260000A8464FF08072D4E9001011400020134614
:102610005940404001432AD1A06CB8B1012804D0F0
:1026200002280BD0032812D10FE0D4482C380068C0
:1026300040F40030D1492C3908600AE0022104F14D
:10264000080002F0BDF9054603E002E001E00125C3
:1026500000BF00BF55B9C9480C38006820F003001E
:10266000A16C0843C5490C39086000E0A8464FF446
:102670008002D4E90001104000211346584049402F
:1026800008437DD1BE48006840F48070BC490860B2
:10269000FFF786F9064606E0FFF782F9801B6428FB
:1026A00001D9032505E0B648006800F480700028D1
:1026B000F2D000BF85BBB1481830006800F440700C
:1026C000B4F8B41001F44071884213D0AB4818300C
:1026D000006820F44077A9481830006840F4803042
:1026E000A649183108600846006820F48030086068
:1026F00008460760D4F8B400B0F5807F15D1FFF725
:102700004FF9064609E0FFF74BF9801B41F288318B
:10271000884202D9032507E038E09848183000685D
:10272000C0F340000028EED000BF55BB00BFB4F896
:10273000B40000F44070B0F5407F0ED18F484838A7
:10274000006820F47C518F4AD4F8B400104041EA6C
:1027500010108A494839086007E0884848380068FE
:1027600020F47C5085494839086084481830006856
:10277000B4F8B410C1F30B0108438049183101E0EB
:1027800005E001E0086002E0A84600E0A84601225A
:10279000D4E9000110400021134658404940084345
:1027A00030D1E06F18281AD005DC48B1082808D0CD
:1027B000102817D10CE0202812D0282812D110E0C0
:1027C00012E0012104F1080002F0FAF805460BE0DE
:1027D000012104F1280002F0A5F9054604E003E018
:1027E00002E001E0012500BF00BF55B96348001FAA
:1027F000006820F03800E16F08436049091F086055
:1028000000E0A8460222D4E900011040002113464E
:1028100058404940084329D1A06F062816D2DFE866
:1028200000F003040B12131412E0012104F108005C
:1028300002F0C6F805460BE0012104F1280002F081
:1028400071F9054604E003E002E001E0012500BF64
:1028500000BF55B94948001F006820F00700A16F6C
:1028600008434649091F086000E0A8460423D4E94C
:1028700000101940002059404040014329D1D4F8AC
:102880009400062816D2DFE800F003040B1213149C
:1028900012E0012104F1080002F092F805460BE075
:1028A000012104F1280002F03DF9054604E003E0AF
:1028B00002E001E0012500BF00BF4DB92F480068CC
:1028C00020F00700D4F8941008432C49086000E079
:1028D000A8462023D4E9000118400021584049406F
:1028E000084337D1D4F89000B0F1405F1ED007DC28
:1028F00068B1B0F1805F0BD0B0F1005F19D10EE08C
:10290000B0F1804F13D0B0F1A04F12D110E012E01F
:10291000002104F1080002F053F805460BE0022103
:1029200004F1280002F0FEF8054604E003E002E0AE
:1029300001E0012500BF00BF5DB91048001F00681D
:1029400020F0E040D4F8901008430C49091F0860BB
:1029500000E0A8464023D4E9001019400020594067
:10296000404001433CD1D4F89C00B0F5406F25D0E5
:102970000EDCA0B1B0F5806F12D005E058440258CB
:1029800000480258FFFCFF0FB0F5006F19D10EE0B0
:10299000B0F5805F13D0B0F5A05F12D110E012E067
:1029A000002104F1080002F00BF805460BE00221BB
:1029B00004F1280002F0B6F8054604E003E002E066
:1029C00001E0012500BF00BF4DB9FE48006820F4BA
:1029D000E050D4F89C100843FA49086000E0A8468B
:1029E0008023D4E9001019400020594040400143A1
:1029F00035D1D4F8A000B0F5C04F1ED007DC68B1C7
:102A0000B0F5005F0BD0B0F5804F19D10EE0B0F5F6
:102A1000004F13D0B0F5204F12D110E012E000218A
:102A200004F1080001F0CCFF05460BE0022104F19F
:102A3000280002F077F8054604E003E002E001E038
:102A4000012500BF00BF4DB9DE48006820F460409A
:102A5000D4F8A0100843DB49086000E0A84608232A
:102A6000D4E900101940002059404040014317D1DB
:102A7000D4F88400B0F5805F07D1022104F128006A
:102A800002F050F808B14FF00108CE48001F00686E
:102A900020F44050D4F884100843CA49091F086044
:102AA0001023D4E900101940002059404040014350
:102AB00015D1D4F89800B0F5807F07D1022104F138
:102AC000280002F02FF808B14FF00108BD48006857
:102AD00020F44070D4F898100843BA4908604FF4C5
:102AE0000022D4E90001104000211346584049401B
:102AF000084327D1D4F8A40030B1B0F5803F0AD004
:102B0000B0F5003F0FD10DE0002104F1080001F005
:102B100057FF054609E0022104F1280002F002F8FF
:102B2000054602E001E0012500BF00BF4DB9A54800
:102B3000006820F44030D4F8A4100843A14908608C
:102B400000E0A8464FF48023D4E90001184000219A
:102B50005840494008432DD1D4F88800B0F5801F73
:102B600006D0B0F5001F0CD0B0F5401F11D10FE01A
:102B700094482C38006840F4003092492C390860A1
:102B800009E0012104F1280001F0CCFF054602E034
:102B900001E0012500BF00BF5DB98A48001F006841
:102BA00020F44010D4F8881008438649091F0860B3
:102BB00000E0A8464FF48032D4E900011040002123
:102BC000134658404940084325D1206D18B1B0F54F
:102BD000803F10D108E07B482C38006840F400307A
:102BE00078492C39086008E0022104F1080001F05E
:102BF000E7FE054601E0012500BF00BF55B9714859
:102C00000C38006820F48030216D08436D490C3980
:102C1000086000E0A8464FF00052D4E900101140CF
:102C20000020134659404040014307D1022104F1DE
:102C3000280001F077FF08B14FF001084FF400338E
:102C4000D4E900011840002158404940084329D1E7
:102C5000D4F88000A0B1B0F5807F06D0B0F5007F39
:102C60000CD0B0F5407F0CD109E056482C380068F4
:102C700040F4003053492C39086004E003E002E0DE
:102C800001E0012500BF00BF5DB94E48001F00688C
:102C900020F44070D4F8801008434A49091F0860A6
:102CA00000E0A8464FF48012D4E900101140002043
:102CB000134659404040014309D142480838006852
:102CC00020F00040616F08433E49083908604FF02A
:102CD0008052D4E900101140002013465940404072
:102CE00001430AD137484838006820F48040D4F8BE
:102CF000B81008433349483908604FF40012D4E94A
:102D0000001011400020134659404040014309D1B2
:102D10002C480838006820F08070E16E084329498B
:102D2000083908604FF08042D4E9001011400020BB
:102D3000134659404040014311D100BF2148483853
:102D4000006820F400401F494839086008460068C0
:102D5000D4F8BC1008431B494839086000BF4FF045
:102D60000042D4E900101140002013465940404071
:102D7000014309D113480C38006820F04050616DC0
:102D8000084310490C3908604FF40002D4E90010E0
:102D90001140002013465940404001430AD10948E0
:102DA000001F006820F44000D4F88C100843054947
:102DB000091F086001230021606818400122494072
:102DC000504001E058440258014306D104F1080084
:102DD00001F0F6FD054605B1A84602220021606813
:102DE000104049405040014307D1012104F108003F
:102DF00001F0E6FD054605B1A84604230020616800
:102E00001940042240405140084307D1022104F1F7
:102E1000080001F0D5FD054605B1A84608230021AC
:102E200060681840082249405040014306D104F12F
:102E3000280001F077FE054605B1A84610220021C2
:102E40006068104049405040014307D1012104F11E
:102E5000280001F067FE054605B1A84620220020A3
:102E60006168114040405140084307D1022104F1FC
:102E7000280001F057FE054605B1A846B8F1000F3D
:102E800002D10020BDE8F0810120FBE72DE9F041EF
:102E900004460D4614B90120BDE8F081BD48006824
:102EA00000F00F00A8420ED2BA48006820F00F00D0
:102EB0002843B84908600846006800F00F00A8429F
:102EC00001D00120E8E7207800F0040004280ED1AA
:102ED000B1492069096801F07001884207D9AE48FC
:102EE000006820F0700021690843AB490860207831
:102EF00000F00800082811D1A749091D6069096878
:102F000001F07001884209D9A348001D006820F033
:102F1000700061690843A049091D0860207800F02D
:102F20001000102811D19C49091DA069096801F4FD
:102F3000E061884209D99848001D006820F4E060EB
:102F4000A16908439449091D0860207800F0200019
:102F5000202811D190490831E069096801F0700119
:102F6000884209D98C480830006820F07000E16977
:102F70000843894908310860207800F002000228DF
:102F80000ED18549E068096801F00F01884207D930
:102F90008148006820F00F00E16808437E4908601E
:102FA000207800F00100002850D07B48006820F411
:102FB0007060A1680843784908606068022807D1FA
:102FC000754818380068C0F34040F8B9012063E73D
:102FD0006068032807D1704818380068C0F3406063
:102FE000A0B9012058E76068012807D16A4818385D
:102FF0000068C0F3002048B901204DE76648183842
:103000000068C0F3800008B9012045E7624808382D
:10301000006820F00700616808435F4908390860CC
:10302000FEF7BEFC064608E0FEF7BAFC801B41F244
:103030008831884201D903202EE7574808380068B4
:1030400000F038006168B0EBC10FEDD1207800F0DE
:10305000020002280ED15049E068096801F00F0112
:10306000884207D24C48006820F00F00E16808430E
:10307000494908604748006800F00F00A8420ED98F
:103080004448006820F00F00284342490860084681
:10309000006800F00F00A84201D00120FCE6207873
:1030A00000F0040004280ED13B492069096801F0B2
:1030B0007001884207D23848006820F0700021690A
:1030C000084335490860207800F00800082811D12D
:1030D0003149091D6069096801F07001884209D20F
:1030E0002D48001D006820F07000616908432A49DE
:1030F000091D0860207800F01000102811D1264921
:10310000091DA069096801F4E061884209D22248DA
:10311000001D006820F4E060A16908431E49091DF4
:103120000860207800F02000202811D11A490831C9
:10313000E069096801F07001884209D21648083038
:10314000006820F07000E169084313490831086005
:1031500000F08CF910490968C1F303210F4A515C52
:1031600001F01F0120FA01F70B48006800F00F0082
:103170001146085C00F01F0027FA00F008490860BB
:103180000848076008480068FEF740FC8046404653
:1031900082E60000002000521844025888660008A9
:1031A00008000024040000241000002410B580480A
:1031B000006800F00F0003280ED27D48006820F060
:1031C0000F00C01C7A4908600846006800F00F0034
:1031D000032801D0012010BDFEF7E2FB044675482C
:1031E000006840F001007349086006E0FEF7D8FB74
:1031F000001B022801D90320EDE76E48006800F0AB
:1032000004000028F2D06B48001D006840F08040A8
:103210006849091D08600020664910310860664849
:10322000664908606649086066480068FEF7EEFB7C
:1032300008B10120CFE7FEF7B3FB044608E0FEF734
:10324000AFFB001B41F28831884201D90320C2E75D
:1032500058481030006800F038000028EFD1FEF721
:103260009FFB04465348006857490840514908608D
:1032700006E0FEF795FB001B642801D90320AAE7AE
:103280004C48006800F400300028F2D1FEF788FBBB
:1032900004464848006820F080704649086006E00F
:1032A000FEF77EFB001B022801D9032093E741486B
:1032B000006800F000700028F2D1FEF771FB0446B0
:1032C0003C48006820F080603A49086006E0FEF75C
:1032D00067FB001B022801D903207CE73548006802
:1032E00000F000600028F2D1FEF75AFB0446314896
:1032F000006820F080502F49086006E0FEF750FB80
:10330000001B022801D9032065E72A48006800F065
:1033100000500028F2D1274918310860091D0860C3
:10332000091D086029482349283108602848091DDB
:1033300008602848091D08600020091D086025480C
:10334000091D08600020091D08602248091D086049
:103350000020091D08601748006820F480201549E6
:1033600008600020134960310860401E114968312F
:1033700008601048D030006840F480300D49D031EA
:1033800008600B48006800F00F0003280ED90848B9
:10339000006820F00F00C01C05490860084600685E
:1033A00000F00F00032801D0012014E7002012E7ED
:1033B00000200052004402580090D0030400002472
:1033C000080000241000002445EDF6FF0002020270
:1033D0000000FF018002010110B500F047F80D491F
:1033E0000968C1F303210C4A515C01F01F0120FA66
:1033F00001F40848006800F00F001146085C00F076
:103400001F0024FA00F005490860054804600846DA
:10341000006810BD1844025888660008080000249F
:103420000400002400B5FFF7D7FF05490968C1F380
:103430000211044A515C01F01F01C84000BD0000A8
:103440001C4402588866000800B5FFF7C5FF05490F
:103450000968C1F30221044A515C01F01F01C84010
:1034600000BD00001C44025888660008F0B5824E7A
:10347000366806F0380636B1082E15D0102E15D055
:10348000182E7DD114E07C4E103E3668C6F34016EF
:1034900046B1794E103E3668C6F3C107774E26FA1C
:1034A00007F000E07548E5E07548E3E07548E1E0C5
:1034B000714E1836366806F003046F4E18363668BB
:1034C000C6F305116C4E1C36366806F001056A4ECF
:1034D00024363668C6F3CC0616FB05F601EE106AF4
:1034E000B8EE410A002971D024B1012C50D0022C31
:1034F0006DD16DE0604E103E3668C6F340163EB3A7
:103500005D4E103E3668C6F3C1075C4E26FA07F3DF
:1035100001EE103AF8EE411A01EE101AB8EE411A17
:1035200081EE812A9FED581AC0EE011A524E2036C4
:103530003668C6F3080601EE106AB8EE411A31EE9D
:10354000811AF7EE001A31EE211A62EE010A1EE02E
:1035500001EE101AB8EE411ADFED4C1A81EE812A05
:103560009FED491AC0EE011A434E20363668C6F365
:10357000080601EE106AB8EE411A31EE811A00E039
:1035800076E0F7EE001A31EE211A62EE010A5BE0F6
:1035900001EE101AB8EE411A9FED3D2AC2EE011A53
:1035A0009FED391A80EE012A334E20363668C6F375
:1035B000080601EE106AB8EE411A32EE011AB7EEB3
:1035C000002A31EE021A61EE810A3DE04EE01DE074
:1035D00001EE101AB8EE411ADFED2E1A81EE812AA3
:1035E0009FED291AC0EE011A234E20363668C6F325
:1035F000080601EE106AB8EE411A31EE811AF7EEB4
:10360000001A31EE211A62EE010A1DE001EE101AD5
:10361000B8EE411A9FED1E2AC2EE011A9FED1A1A4A
:1036200080EE012A144E20363668C6F3080601EEF5
:10363000106AB8EE411A32EE011AB7EE002A31EEE6
:10364000021A61EE810A00BF00BF0B4E20363668B9
:10365000C6F34626721C01EE102AB8EE411AC0EEDF
:10366000811ABCEEE11A11EE100A00E0002001E020
:10367000034800BF00BFF0BD104402580090D003C3
:1036800000093D0000127A00000000460024744C3E
:103690000024744A0024F44A2DE9F047044614B982
:1036A0000120BDE8F087207800F00100002870D0EC
:1036B000FA48006800F03808F8481830D0F8009050
:1036C000B8F1100F06D0B8F1180F0FD109F00300B0
:1036D00002280BD1F14810380068C0F340400028A0
:1036E0006AD06068002867D10120DAE700BF60680F
:1036F000B0F5803F08D1E9481038006840F48030C8
:10370000E649103908602EE0606868B9E34810386F
:10371000006820F48030E1491039086008460068EC
:1037200020F4802008601EE06068B0F5A02F0DD165
:10373000DA481038006840F48020D8491039086011
:103740000846006840F4803008600CE0D348103828
:10375000006820F48030D1491039086008460068BC
:1037600020F48020086000BF606898B1FEF718F967
:10377000054606E0FEF714F9401B642801D9032032
:103780008FE7C64810380068C0F340400028F1D0E9
:1037900012E012E0FEF704F9054606E0FEF700F934
:1037A000401B642801D903207BE7BC48103800681F
:1037B000C0F340400028F1D100BF207800F00200A3
:1037C000022874D1B548006800F03808B3481830B2
:1037D000D0F80090B8F1000F05D0B8F1180F56D10D
:1037E00009F00300D0BBAD4810380068C0F380007A
:1037F00018B1E06808B9012053E7A84810380068FC
:1038000020F01900E1680843A44910390860FEF768
:10381000C7F8054606E0FEF7C3F8401B022801D9A9
:1038200003203EE79D4810380068C0F38000002860
:10383000F1D000BFFEF7AEF841F2030188421AD87A
:10384000206940280BD195480C38006820F47C3062
:1038500040F4003091490C39086017E017E08F48B8
:103860000C38006820F47C30216940EA01308B4933
:103870000C3908600AE089480C38006820F0FE40E6
:10388000217C40EA016085490C39086066E0E06807
:1038900088B382481038006820F01900E1680843B6
:1038A0007E4910390860FEF77BF8054607E056E0D0
:1038B000FEF776F8401B022801D90320F1E677488D
:1038C00010380068C0F380000028F1D000BFFEF778
:1038D00061F841F2030188421AD8206940280BD1CF
:1038E0006E480C38006820F47C3040F400306B499E
:1038F0000C39086017E017E068480C38006820F4BD
:103900007C30216940EA013064490C3908600AE0E2
:1039100062480C38006820F0FE40217C40EA0160DB
:103920005E490C39086019E05C481038006820F0E6
:1039300001005A4910390860FEF732F8054606E0E2
:10394000FEF72EF8401B022801D90320A9E65348B0
:1039500010380068C0F380000028F1D100BF207843
:1039600000F0100010287CD14C48006800F03808A6
:103970004A481830D0F80090B8F1080F06D0B8F1D6
:10398000180F3DD109F00300012839D14348103800
:103990000068C0F3002020B1E069802801D0012038
:1039A0007FE600BFFDF7F6FF41F2030188421AD817
:1039B000206A20280AD139480C38006820F0F840E5
:1039C00040F0804035490C39086018E033480C3825
:1039D000006820F0F84094F8201040EA81602F49F8
:1039E0000C3908600BE02D48001F006820F07C5067
:1039F00094F8201040EA01602849091F086066E039
:103A0000E06978B325481038006840F08000234909
:103A100010390860FDF7C4FF054606E0FDF7C0FF5A
:103A2000401B022801D903203BE61C4810380068DF
:103A3000C0F300200028F1D000BFFDF7ABFF41F23A
:103A4000030188421CD8206A20280CD113480C3866
:103A5000006820F0F84040F0804010490C390860C0
:103A60001AE035E01CE00D480C38006820F0F84002
:103A700094F8201040EA816008490C3908600BE096
:103A80000648001F006820F07C5094F8201040EA9F
:103A900001600249091F086019E000001044025843
:103AA000FA48006820F08000F8490860FDF778FFC8
:103AB000054606E0FDF774FF401B022801D90320EC
:103AC000EFE5F2480068C0F300200028F2D100BF03
:103AD000207800F00800082836D16069D0B1EB48A2
:103AE0007430006840F00100E84974310860FDF767
:103AF00057FF054606E0FDF753FF401B022801D99A
:103B00000320CEE5E14874300068C0F3400000288F
:103B1000F1D019E0DD487430006820F00100DB4985
:103B200074310860FDF73CFF054606E0FDF738FFFD
:103B3000401B022801D90320B3E5D4487430006843
:103B4000C0F340000028F1D1207800F020002028A8
:103B500030D1A069B8B1CD48006840F48050CB495D
:103B60000860FDF71DFF054606E0FDF719FF401B45
:103B7000022801D9032094E5C4480068C0F340300E
:103B80000028F2D016E0C148006820F48050BF49F8
:103B90000860FDF705FF054606E0FDF701FF401B45
:103BA000022801D903207CE5B8480068C0F3403002
:103BB0000028F2D1207800F0040004287DD1B44818
:103BC000006840F48070B2490860FDF7E9FE0546E0
:103BD00006E0FDF7E5FE401B642801D9032060E5FF
:103BE000AB48006800F480700028F2D000BFA068E5
:103BF000012808D1A5487030006840F00100A349B1
:103C0000703108602DE0A06868B9A0487030006885
:103C100020F001009D49703108600846006820F0DE
:103C2000040008601DE0A06805280DD19748703099
:103C3000006840F00400954970310860084600684B
:103C400040F0010008600CE090487030006820F0FF
:103C500001008E49703108600846006820F00400B9
:103C6000086000BFA068A0B1FDF79AFE054608E015
:103C7000FDF796FE401B41F28831884201D90320AE
:103C80000FE5824870300068C0F340000028EFD094
:103C900013E0FDF785FE054608E0FDF781FE401BB9
:103CA00041F28831884201D90320FAE47748703024
:103CB0000068C0F340000028EFD1606A00287DD082
:103CC00072481030006800F03800182877D0606A19
:103CD000022875D16D48006820F080706B4908603B
:103CE000FDF75EFE054606E0FDF75AFE401B022882
:103CF00001D90320D5E465480068C0F3406000287E
:103D0000F2D100BFD4E90A1041EA00105F4928311E
:103D1000096840F2F332914308435C492831086056
:103D2000208E401EC0F30800616B491E4FF47E4296
:103D300002EA41210843218F491ED20102EA0141D2
:103D400008433C21095D491E120202EA0161084351
:103D50004E493031086000BF081F006820F00100A4
:103D6000091F08604948343000684FF6F8718843ED
:103D7000A16C40EAC10045493431086043482C3009
:103D8000006820F00C00216C084340492C31086089
:103D90000846006820F00200616C08433B492C3162
:103DA00008600846006840F48030086008460068F3
:103DB00040F4003008600846006802E093E038E014
:103DC0001FE040F4802008600846006840F00100D1
:103DD00008602E48006840F080702C490860FDF7AC
:103DE000DFFD054606E0FDF7DBFD401B022801D99B
:103DF000032056E425480068C0F340600028F2D054
:103E000071E02248006820F0807020490860FDF7CA
:103E1000C7FD054606E0FDF7C3FD401B022801D99A
:103E200003203EE419480068C0F340600028F2D146
:103E300059E0164828300768144830300668606A30
:103E4000012821D007F00301A06A81421CD1C7F3E9
:103E50000511E06A884217D1C6F30801206B401EA5
:103E6000814211D1606B401EC6F3462188420BD1BE
:103E7000A06B401EC6F30641884205D1E06B401E90
:103E8000C6F30661884205D001200AE400440258C6
:103E90000048025815480068C0F3CC07A06CB8422F
:103EA00021D012480838006820F001000F49083975
:103EB0000860FDF775FD054600BFFDF771FD401B6D
:103EC000FBD00A4800684FF6F8718843A16C40EABD
:103ED000C1000649086005480838006840F0010044
:103EE00002490839086000204AE4000034440258BE
:103EF00070B504462546681EB0F1807F01D30120CD
:103F00000FE0681E4FF0E02148610F214FF0FF30B5
:103F100002F094F800204FF0E0218861072008614A
:103F2000002070BD014600BF91F88400012801D136
:103F300002207047012081F8840000BF2420C1F8CE
:103F40008800086802680868006820F001000B68B3
:103F5000186022F0005200204866086802602020A5
:103F6000C1F8880000BF002081F8840000BF00BFB6
:103F7000DFE77047704770B504460D4600BF94F800
:103F80008400012801D1022070BD012084F8840042
:103F900000BF2420C4F888002068066820680068F4
:103FA00020F00100216808602068806820F06060CF
:103FB000284321688860204600F0ACFF2068066036
:103FC0002020C4F8880000BF002084F8840000BFCF
:103FD00000BFD9E770B504460D4600BF94F88400D1
:103FE000012801D1022070BD012084F8840000BFA7
:103FF0002420C4F88800206806682068006820F043
:104000000100216808602068806820F06040284333
:1040100021688860204600F07DFF2068066020202F
:10402000C4F8880000BF002084F8840000BF00BFEF
:10403000D9E77047704770472DE9F047044620687C
:10404000C569206806682068876840F60F0005EAA1
:104050000009B9F1000F0FD105F0200060B106F0A2
:10406000200010B907F0805030B1606F10B12046C9
:10407000616F8847BDE8F087B9F1000F7ED0FE4838
:10408000384018B9FD4830400028F7D005F001004D
:1040900058B106F4807040B1012021680862D4F85C
:1040A000900040F00100C4F8900005F0020058B103
:1040B00007F0010040B1022021680862D4F89000A6
:1040C00040F00400C4F8900005F0040058B107F077
:1040D000010040B1042021680862D4F8900040F04B
:1040E0000200C4F8900005F0080070B106F020004E
:1040F00010B9E148384040B1082021680862D4F87E
:10410000900040F00800C4F8900005F4006060B131
:1041100006F0806048B14FF4006021680862D4F86E
:10412000900040F02000C4F89000D4F890000028DF
:1041300052D005F0200050B106F0200010B907F071
:10414000805020B1606F10B12046616F8847D4F86D
:1041500090A02068806800F04000402802D00AF05B
:10416000280070B3204600F0FFFF2068806800F050
:104170004000402826D100BF00BF00E02DE02168AC
:10418000083151E8001F21F040002168083141E862
:104190000002002AF1D100BFD4F8800068B1B8480D
:1041A000D4F880100865D4F88000FCF7D9FE98B1E7
:1041B000D4F88000016D88470EE02046FFF73BFFF2
:1041C0000AE003E02046FFF736FF05E02046FFF750
:1041D00032FF0020C4F890004CE7E06E01287DD14A
:1041E00005F01000002879D006F010000028FAD061
:1041F0001020216808622068806800F04000402894
:104200006DD1D4F8800000689E4988426BD0D4F804
:10421000800000689B491831884264D0D4F880003F
:1042200000689849303188425DD0D4F88000006839
:1042300094494831884256D0D4F8800000689149AA
:10424000603188424FD0D4F8800000688D497831C1
:10425000884248D0D4F8800000688A49903188426A
:1042600041D0D4F8800000688649A83188423AD00D
:10427000D4F8800000688449884234D0D4F88000A3
:1042800000688149183188422DD0D4F88000006838
:104290007D493031884226D0D4F8800000687A49C0
:1042A000483188421FD0D4F88000006876496031D8
:1042B000884218D0D4F88000006873497831884269
:1042C00011D0D4F8800000686F49903188420AD03C
:1042D000D4F8800000686C49A83102E0AEE069E0E3
:1042E00001E0884204D1D4F880000068406803E00F
:1042F000D4F88000006840681FFA80F8B8F1000F19
:1043000057D0B4F85C00404553DDA4F85E80D4F883
:104310008000C069B0F5807F40D000BF00BF216839
:1043200051E8001F21F48070226842E80001002952
:10433000F5D100BF00BF00BF2168083151E8001F60
:1043400021F001002168083141E80002002AF3D180
:1043500000BF00BF00BF2168083151E8001F21F0F5
:1043600040002168083141E80002002AF3D100BF73
:104370002020C4F88C000020E06600BF00BF216848
:1043800051E8001F21F01000226842E800010029D6
:10439000F5D100BFD4F88000FCF774FB0220206741
:1043A000B4F85C00B4F85E20801A81B22046FFF7B2
:1043B000E0FD5FE634F85C0F6188401A1FFA80F870
:1043C00060885C3CC8B3B8F1000F36D000BF00BFB6
:1043D000216851E8001F21F49070226842E8000132
:1043E0000029F5D100BF00BF00BF2168083151E8A6
:1043F000001F214AD24301EA02002168083141E846
:104400000002002AF1D100BF2020C4F88C00002057
:10441000E066606700BF00BF216851E8001F21F01F
:104420001000226842E800010029F5D100BF0220F7
:10443000206741462046FFF79CFD1BE605F48010EF
:1044400050B107F4800038B14FF480102168086241
:104450002046FFF7EFFD0DE605F08000B0B106F055
:10446000800010B907F4000080B1A06F10B12046A1
:10447000A16F8847FEE50000010000102001000444
:104480004F510008100002401004024005F04000A7
:1044900030B106F0400018B1204600F09BFEE9E57F
:1044A00005F4000030B106F0804018B12046FFF757
:1044B000C0FDDFE505F0807030B106F0004018B1B6
:1044C0002046FFF757FDD5E500BFD3E510B50446FC
:1044D0000CB9012010BDA06900B100E000BFD4F804
:1044E000880028B9002084F88400204600F040F8B5
:1044F0002420C4F888002068006820F001002168AA
:104500000860204601F07CF9012800D1E2E7A06AAA
:1045100010B1204600F02AFD2068406820F4904049
:10452000216848602068806820F02A00216888603F
:104530002068006840F0010021680860204600F013
:1045400091FDC7E710B504460748006820F0100049
:10455000054908604FF4C0610448FDF753F8252071
:10456000FDF7E6FA10BD0000F044025800000258C2
:1045700010B5B8B00446142132A8FBF7F3FEC021F1
:1045800002A8FBF7EFFE01210020CDE902102190E7
:1045900002A8FDF7C7FD08B1FCF734F900BF1A48BF
:1045A000006840F01000184908600846006800F0F4
:1045B0001000019000BF00BF00BF13481038006812
:1045C00040F001001049103908600846006800F00A
:1045D0000100019000BF00BF4FF4C0603290022084
:1045E00033900020349035900720369032A9074848
:1045F000FDF7C4F8002202212520FDF7CFFA25207F
:10460000FDF7B8FA38B010BDF04402580000025867
:1046100070B504460D461646D4F88C00202821D1EA
:1046200005B10EB9012070BD0020E0660E4920687A
:10463000884211D02068406800F4000060B100BFDB
:1046400000BF216851E8001F41F08060226842E805
:1046500000010029F5D100BF32462946204601F06D
:1046600095FBE0E70220DEE7000C005810B5044699
:104670005849206888427CD157484079002815D194
:104680005548B0F8000190B954480078CD280ED1B3
:10469000524801785048B0F80021383081543838F9
:1046A000B0F80001401C4C49A1F800018CE04A48D8
:1046B000B0F80001012813DB4748B0F800010228D8
:1046C0000EDC464801784448B0F800213830815467
:1046D0003838B0F80001401C3F49A1F8000173E0F0
:1046E0003D48B0F80001032812D13C4801783A480F
:1046F000B0F8002138308154384800783649A1F8A4
:1047000002010846B0F80001401CA1F800015BE07E
:104710003148B0F80001042816DB2F48B0F800112A
:10472000B0F80201C01C81420EDC2C4801782A48F6
:10473000B0F80021383081543838B0F80001401CFE
:104740002549A1F800013FE02348B0F80011B0F876
:104750000201001D814210D1204801781E48B0F8A6
:104760000021383081543838B0F80001401C1A4913
:1047700000E02EE0A1F8000126E01748B0F8001193
:10478000B0F80201401D814217D114480078DC289E
:1047900013D1124801781048B0F800213830815404
:1047A0003838B0F80001401C0B49A1F80001002086
:1047B000A1F802010120487106E000200649A1F895
:1047C0000201A1F800014871012204492046FFF7C7
:1047D0001FFF10BD0010014018000024030000243A
:1047E0002DE9F84F04460E4617469946D4F888003E
:1047F000202854D106B117B90120BDE8F88F002058
:104800005434E06321206063FDF7CAF882462780B4
:104810006780543CA068B0F5805F04D1206910B96E
:104820000025B04602E035464FF0000820E0534630
:10483000002280212046CDF8009001F055FB20B1E8
:104840002020C4F888000320D7E745B9B8F8000055
:10485000C0F308002168886208F1020803E02878A4
:10486000216888626D1CB4F85600401EA4F85600FA
:10487000B4F856000028DAD15346002240212046E1
:10488000CDF8009001F030FB20B12020C4F8880062
:104890000320B2E72020C4F888000020ADE7022002
:1048A000ABE770471FB50020009001900290039085
:1048B000FDF706F901208DF8000000208DF80100B9
:1048C00001901F208DF8080087208DF80900002036
:1048D0008DF80A008DF80B0001208DF80C008DF882
:1048E0000D0000208DF80E008DF80F006846FDF7D2
:1048F000B9F801208DF801004FF0605001900F20B1
:104900008DF8080000208DF8090003208DF80B00B9
:1049100000208DF80C0001208DF80E006846FDF790
:10492000A1F80420FDF7E2F81FBD1FB5684601F0AD
:1049300057FE00B11FBD019818B10198B0F5602F66
:1049400002D301F045FEF5E74FF00160019901F057
:104950000FFD0299884202D001F03AFEEAE701F029
:1049600037FE4FF00160019900F000F804460D4653
:104970002946204601F04EFE00B5B1B0C021684680
:10498000FBF7F0FC4FF400210020CDE900100220DD
:1049900002900C21039101210491022105910691BD
:1049A000C021079120210891002109910020299020
:1049B0006846FDF7B7FB08B1FBF724FF31B000BD37
:1049C0002DE9F04104460E4600275548006800F0E6
:1049D0000300032802D10120BDE8F08150482838A7
:1049E000006820F080604E4928390860FCF7D8FF45
:1049F000054606E0FCF7D4FF401B022801D903203E
:104A0000EAE7474828380068C0F3C0600028F1D1C1
:104A100000BF4348006820F47C30216840EA013040
:104A20003F490860A088401EC0F30800A168491EE5
:104A30004FF47E4202EA41210843A189491ED20176
:104A400002EA01410843217C491E120202EA016187
:104A5000084333491031086000BF3148001D006829
:104A600020F0C000616908432D49091D086008460F
:104A7000006820F02000A16908432949091D086049
:104A80000846006820F010000860254814300068CF
:104A90004FF6F8718843E16940EAC10020491431BA
:104AA00008601F48001D006840F010001C49091DE7
:104AB00008602EB90846006840F40020086012E043
:104AC000012E08D11648001D006840F480101449DA
:104AD000091D086007E01248001D006840F400103E
:104AE0000F49091D08600E482838006840F08060B2
:104AF0000B4928390860FCF753FF054606E0FCF730
:104B00004FFF401B022801D9032065E704482838DD
:104B10000068C0F3C0600028F1D038465CE70000B0
:104B2000284402582DE9F04104460E460027554816
:104B3000006800F00300032802D10120BDE8F081E5
:104B400050482838006820F080504E4928390860C5
:104B5000FCF726FF054606E0FCF722FF401B022873
:104B600001D90320EAE7474828380068C0F34070BD
:104B70000028F1D100BF4348006820F07C702188F4
:104B800040EA01503F490860A088401EC0F3080079
:104B9000A168491E4FF47E4202EA41210843A189DF
:104BA000491ED20102EA01410843217C491E12023A
:104BB00002EA0161084333491831086000BF3148F7
:104BC000001D006820F44060616908432D49091DFB
:104BD00008600846006820F40070A169084329496C
:104BE000091D08600846006820F4807008602548A8
:104BF0001C3000684FF6F8718843E16940EAC10053
:104C000020491C3108601F48001D006840F4807076
:104C10001C49091D08602EB90846006840F4800050
:104C2000086012E0012E08D11648001D006840F40B
:104C300000001449091D086007E01248001D0068C3
:104C400040F080700F49091D08600E482838006840
:104C500040F080500B4928390860FCF7A1FE05465A
:104C600006E0FCF79DFE401B022801D9032065E702
:104C7000044828380068C0F340700028F1D0384656
:104C80005CE7000028440258002109E0002201E00E
:104C9000531C9AB241F6A4739A42F9DB4B1C99B2A9
:104CA0008142F3DB7047002107E0002201E0531C42
:104CB0009AB2082AFBDB4B1C99B28142F5DB7047A4
:104CC0007047000000B59DB04C210AA8FBF74AFBD5
:104CD000202102A8FBF746FB0220FCF7B1FF00BF32
:104CE000002001904748006820F001004549086015
:104CF0000846006800F0010001904348006840F455
:104D00004040414908600846006800F44040019076
:104D100000BF00BF00BF3C48006800F40050B0F581
:104D2000005FF8D100BF3948006840F00200374901
:104D300008600846006800F00200019000BF00BF54
:104D400000BF002001903048006840F440402E49E8
:104D500008600846006800F4404001902948006857
:104D600040F00100274908600846006800F0010093
:104D7000019000BF00BF00BF2348006800F400504E
:104D8000B0F5005FF8D12148CC38006820F003006E
:104D9000801C1E49CC39086001200A9000040B9049
:104DA000022013900221149105211591C021169122
:104DB00002211791052118910221199108211A91B8
:104DC00000211B911C910AA8FEF766FC08B1FBF7B5
:104DD00019FD3F200290032003900020049008203A
:104DE000059040200690079000010890402009900F
:104DF000042102A8FEF74AF808B1FBF703FD1DB035
:104E000000BD00002C04005818480258F444025811
:104E10003648006840F4700034490860344800683F
:104E200000F00F00032806D23148006820F00F0080
:104E3000C01C2F4908602F48006840F001002D4930
:104E4000086000202B49103108602A4800682A4970
:104E50000840284908602648006800F00F00032831
:104E600006D92348006820F00F00C01C20490860C4
:104E70000020204918310860091D0860091D0860DC
:104E80001E481C49283108601D48091D08601D483E
:104E9000091D08600020091D08601A48091D0860E6
:104EA0000020091D08601748091D08600020091D21
:104EB00008601048006820F480200E490860002037
:104EC0000C4960310860104800686FF30F00B0F1C2
:104ED000005F02D201200D49086043F2D2000C4964
:104EE00008604803014980390860704788ED00E098
:104EF00000200052004402587FEDF6EA0002020250
:104F00000000FF01800201010010005C08810051D7
:104F10000040005270B5456E2DB90125A0F86A50C9
:104F2000A0F868501CE0102310240568AD68C5F394
:104F300042610568AD686A0F0A4DAD5C15FB04F56A
:104F4000094EB65C95FBF6F5A0F86A50054D6D5C10
:104F500015FB03F5044E765C95FBF6F5A0F868505A
:104F600070BD0000B0660008B866000890F8281010
:104F700001F0010139B10168496821F40031C26AC8
:104F800011430268516090F8281001F002010229D3
:104F900007D10168496821F48031026B114302682E
:104FA000516090F8281001F00401042907D101682C
:104FB000496821F48021426B11430268516090F8E6
:104FC000281001F00801082907D10168496821F477
:104FD0000041826B11430268516090F8281001F083
:104FE0001001102907D10168896821F48051C26B32
:104FF00011430268916090F8281001F020012029E7
:1050000007D10168896821F40051026C11430268DC
:10501000916090F8281001F04001402913D10168F7
:10502000496821F48011426C114302685160416C5F
:10503000B1F5801F07D10168496821F4C001826C75
:1050400011430268516090F8281001F08001802916
:1050500007D10168496821F40021C26C114302683C
:105060005160704738B504460020C4F89000FCF742
:1050700097FC05462068006800F00800082821D148
:105080006FF07E402B4600224FF400110090204626
:1050900000F02AFFB0B100BF00BF216851E8001F37
:1050A00021F08000226842E800010029F5D100BF0C
:1050B0002020C4F8880000BF002084F8840000BFCE
:1050C000032038BD2068006800F00400042830D1B7
:1050D0006FF07E402B4600224FF480010090204666
:1050E00000F002FF28B300BF00BF216851E8001F95
:1050F00021F49070226842E800010029F5D100BF38
:1051000000BF00BF2168083151E8001F21F00100F5
:105110002168083141E80002002AF3D100BF2020B5
:10512000C4F88C0000BF002084F8840000BF032076
:10513000C7E72020C4F88800C4F88C000020E0668F
:10514000206700BF84F8840000BF00BFB9E770B5D6
:105150000546AC6B0020A4F85E00A4F8560020467B
:10516000FEF769FF70BD000000BF00BF026852E893
:10517000002F22F49071036843E80012002AF5D151
:1051800000BF00BF00BF0268083252E8002F104B7A
:1051900002EA03010268083242E80013002BF2D150
:1051A00000BFC16E01290CD100BF00BF026852E8E8
:1051B000002F22F01001036843E80012002AF5D105
:1051C00000BF2021C0F88C100021C16641677047E4
:1051D000FEFFFFEF10B5044600BF00BF216851E895
:1051E000001F21F04000226842E800010029F5D1AB
:1051F00000BF2020C4F888000020A0672046FFF7E9
:1052000050FB10BD2DE9F0410446B4F86070D4F8AD
:105210008C0022286ED12068406A86B2A56D06EA0D
:1052200007002880A06D801CA065B4F85E00401EB9
:10523000A4F85E00B4F85E00002861D100BF00BF92
:10524000216851E8001F21F49070226842E80001B3
:105250000029F5D100BF00BF00BF2168083151E827
:10526000001F21F001002168083141E80002002AF6
:10527000F3D100BF2020C4F88C00002060672067B5
:1052800020492068884211D02068406800F400005E
:1052900060B100BF00BF216851E8001F21F08060AD
:1052A000226842E800010029F5D100BFE06E012824
:1052B0001CD10020E06600BF00BF216851E8001F3C
:1052C00021F01000226842E800010029F5D100BF5A
:1052D0002068C069C0F3001010B110202168086276
:1052E000B4F85C102046FEF744FE09E02046FFF7C4
:1052F000BDF905E02068806940F0080021688861F8
:10530000BDE8F081000C00582DE9F84F0446B4F8D0
:1053100060B02068C5692068006800902068D0F8F7
:1053200008A0D4F88C0022287ED1B4F86890ADE0B3
:105330002068406A1FFA80F8A76D08EA0B003880E1
:10534000A06D801CA065B4F85E00401EA4F85E004D
:105350002068C56905F00700B0B305F0010060B131
:10536000009800F4807040B1012021680862D4F8F0
:10537000900040F00100C4F8900005F0020058B120
:105380000AF0010040B1022021680862D4F89000C0
:1053900040F00400C4F8900005F0040058B10AF091
:1053A000010040B1042021680862D4F8900040F068
:1053B0000200C4F89000D4F8900028B12046FEF70F
:1053C0003AFE0020C4F89000B4F85E0000285DD1D9
:1053D00000BF00BF216851E8001F21F480702268DF
:1053E00042E800010029F5D100BF00BF00BF2168DD
:1053F000083151E8001F404A01EA020021680831E3
:1054000041E80002002AF2D100BF2020C4F88C003D
:1054100000206067206739492068884213D02068DF
:10542000406800F4000000E05DE060B100BF00BF34
:10543000216851E8001F21F08060226842E80001E5
:105440000029F5D100BFE06E01281CD10020E066E4
:1054500000BF00BF216851E8001F21F01000226842
:1054600042E800010029F5D100BF2068C069C0F3FF
:10547000001010B1102021680862B4F85C102046BA
:10548000FEF777FD02E02046FFF7F0F8B9F1000FD4
:1054900004D005F0200000287FF44AAFB4F85E6025
:1054A00006B3B4F86800B04223DD00BF00BF216836
:1054B000083151E8001F21F080502168083141E88F
:1054C0000002002AF3D100BF0D48606700BF00BF93
:1054D000216851E8001F41F02000226842E80001E5
:1054E0000029F5D105E02068806940F008002168B6
:1054F0008861BDE8F88F0000FEFFFFEF000C005848
:105500000552000870B50446B4F86060D4F88C0009
:1055100022286FD12068406A85B2F0B22840A16D80
:105520000870A06D401CA065B4F85E00401EA4F891
:105530005E00B4F85E00002862D100BF00BF2168A1
:1055400051E8001F21F49070226842E80001002910
:10555000F5D100BF00BF00BF2168083151E8001F2E
:1055600021F001002168083141E80002002AF3D14E
:1055700000BF2020C4F88C0000206067206721490C
:105580002068884211D02068406800F4000060B1B3
:1055900000BF00BF216851E8001F21F08060226831
:1055A00042E800010029F5D100BFE06E01281CD1BE
:1055B0000020E06600BF00BF216851E8001F21F015
:1055C0001000226842E800010029F5D100BF2068E0
:1055D000C069C0F3001010B1102021680862B4F84F
:1055E0005C102046FEF7C5FC0AE02046FFF73EF8B7
:1055F00006E0FFE72068806940F0080021688861C4
:1056000070BD0000000C00582DE9F05F0446B4F8AE
:1056100060A02068C5692068D0F800B02068D0F884
:105620000890D4F88C0022287ED1B4F86880ACE0D1
:105630002068406A87B20AF0FF003840A16D087008
:10564000A06D401CA065B4F85E00401EA4F85E008A
:105650002068C56905F00700A8B305F0010058B13E
:105660000BF4807040B1012021680862D4F89000EA
:1056700040F00100C4F8900005F0020058B109F0B4
:10568000010040B1022021680862D4F8900040F087
:105690000400C4F8900005F0040058B109F00100BE
:1056A00040B1042021680862D4F8900040F0020064
:1056B000C4F89000D4F8900028B12046FEF7BBFC57
:1056C0000020C4F89000B4F85E0000285DD100BF4F
:1056D00000BF216851E8001F21F48070226842E871
:1056E00000010029F5D100BF00BF00BF21680831CB
:1056F00051E8001F3F4A01EA02002168083141E8F1
:105700000002002AF2D100BF2020C4F88C00002043
:105710006067206738492068884213D02068406855
:1057200000F4000070B100E05CE000BF00BF216841
:1057300051E8001F21F08060226842E80001002942
:10574000F5D100BFE06E01281CD10020E06600BF4B
:1057500000BF216851E8001F21F01000226842E8D4
:1057600000010029F5D100BF2068C069C0F3001016
:1057700010B1102021680862B4F85C102046FEF7D2
:10578000F8FB02E02046FEF771FFB8F1000F04D0ED
:1057900005F0200000287FF44BAFB4F85E6006B33C
:1057A000B4F86800B04223DD00BF00BF21680831B3
:1057B00051E8001F21F080502168083141E80002C3
:1057C000002AF3D100BF0D48606700BF00BF216809
:1057D00051E8001F41F02000226842E80001002942
:1057E000F5D105E02068806940F0080021688861F3
:1057F000BDE8F09FFEFFFFEF000C005805550008C4
:105800002DE9F04F89B0054600200890F849286836
:10581000884200D100E000BF2969A868084369698F
:105820000843E96940EA010828680068F14908402E
:1058300040EA0800296808602868406820F4405061
:10584000E968084329684860D5F81880E84928685D
:10585000884202D0286A40EA080828688068E64939
:10586000084040EA0800296888602868C06A20F07B
:105870000F00696A08432968C86200BFDF492868C9
:10588000884220D1DE48006800F03800182811D086
:1058900005DC48B1082809D0102811D108E02028DB
:1058A0000AD028280CD109E001240BE0042409E0E7
:1058B000082407E0102405E0202403E0402401E050
:1058C000802400BFF8E0CF492868884219D1CC482D
:1058D000006800F00700062810D2DFE800F003059A
:1058E00007090B0D00240BE0042409E0082407E05D
:1058F000102405E0202403E0402401E0802400BFC0
:10590000DAE0C1492868884219D1BD48006800F032
:105910000700062810D2DFE800F0030507090B0D89
:1059200000240BE0042409E0082407E0102405E02B
:10593000202403E0402401E0802400BFBCE0B34900
:105940002868884219D1AE48006800F00700062890
:1059500010D2DFE800F0030507090B0D00240BE06F
:10596000042409E0082407E0102405E0202403E0D3
:10597000402401E0802400BF9EE0A54928688842B9
:1059800019D19F48006800F00700062810D2DFE810
:1059900000F0030507090B0D00240BE0042409E0C7
:1059A000082407E0102405E0202403E0402401E05F
:1059B000802400BF80E097492868884220D1904821
:1059C000006800F03800182811D005DC48B108281C
:1059D00009D0102811D108E020280AD028280CD19D
:1059E00009E001240BE0042409E0082407E0102466
:1059F00005E0202403E0402401E0802400BF5BE0B8
:105A000085492868884219D17D48006800F0070060
:105A1000062810D2DFE800F0030507090B0D00246B
:105A20000BE0042409E0082407E0102405E020240A
:105A300003E0402401E0802400BF3DE0774928686E
:105A4000884219D16E48006800F00700062810D27D
:105A5000DFE800F0030507090B0D00240BE0042428
:105A600009E0082407E0102405E0202403E0402496
:105A700001E0802400BF1FE05D49286888421AD1F8
:105A80005F48001D006800F00700062810D2DFE81C
:105A900000F0030507090B0D02240BE0042409E0C4
:105AA000082407E0102405E0202403E0402401E05E
:105AB000802400BF00E0802400BF4D492868884250
:105AC0007DD1102C1AD006DC022C09D0042C0BD06E
:105AD000082C29D10DE0202C21D0402C24D120E00D
